:03000000020006F5
:03005F0002000399
:0300030002008672
:20006200AE82AF83EE4F601B7C6E7D00EC24FFFAED34FFFB8A048B05EA4B70F01EBEFF014A
:200082001F80E1227F017E00EFF4F590900064C007C006120062D006D007EF2FFF0EBE08C3
:0700A2000040E57F0180DF53
:06003500E478FFF6D8FD9F
:200013007900E94400601B7A009000AD780175A000E493F2A308B8000205A0D9F4DAF275E6
:02003300A0FF2C
:20003B007800E84400600A790175A000E4F309D8FC7800E84400600C7900900001E4F0A3C3
:04005B00D8FCD9FAFA
:0D0006007581071200A9E582600302000366
:0400A900758200223A
:00000001FF
