:03000000020006F5
:03005F0002000399
:0300030002007781
:200062007E307F75EE24FFFCEF34FFFD8C068D07EC4D70F02220B00CC290120062D29012B9
:13008200006280F120B1EEC291120062D29112006280E2D9
:06003500E478FFF6D8FD9F
:200013007900E94400601B7A00900099780175A000E493F2A308B8000205A0D9F4DAF275FA
:02003300A0FF2C
:20003B007800E84400600A790175A000E4F309D8FC7800E84400600C7900900001E4F0A3C3
:04005B00D8FCD9FAFA
:0D000600758107120095E58260030200037A
:04009500758200224E
:00000001FF
