:03000000020006F5
:03005F0002000399
:0300030002007781
:100062007E307F75EE24FFFCEF34FFFD8C068D079A
:10007200EC4D70F022C280D2B2C2B320960D3097FE
:100082000AC290120062D29012006220970D30963E
:100092000AC291120062D291120062A29782965015
:0700A200DAD291D29080D464
:06003500E478FFF6D8FD9F
:100013007900E94400601B7A009000AD780175A077
:1000230000E493F2A308B8000205A0D9F4DAF2754C
:02003300A0FF2C
:10003B007800E84400600A790175A000E4F309D860
:10004B00FC7800E84400600C7900900001E4F0A318
:04005B00D8FCD9FAFA
:0D0006007581071200A9E582600302000366
:0400A900758200223A
:00000001FF
